:100000000C945C000C9479000C9479000C947900A9
:100010000C9479000C9479000C9479000C9479007C
:100020000C9479000C9479000C9479000C9479006C
:100030000C9479000C9479000C9479000C9479005C
:100040000C9423010C9479000C9479000C947900A1
:100050000C9479000C9479000C9479000C9479003C
:100060000C9479000C947900000000080002010053
:100070000003040700000000000000000000000072
:10008000250028002B0000000000240027002A0083
:10009000040404040404040402020202020203032E
:1000A0000303030301020408102040800102040836
:1000B000102001020408102011241FBECFEFD8E049
:1000C000DEBFCDBF11E0A0E0B1E0EEE0F5E002C0A0
:1000D00005900D92A832B107D9F721E0A8E2B1E06E
:1000E00001C01D92A133B207E1F70E946D010C948B
:1000F00085020C94000090E0FC01E859FF4F349118
:10010000FC01EC55FF4F2491FC01E057FF4FE491B7
:10011000EE2309F43BC0332339F1333091F038F446
:100120003130A9F0323001F584B58F7D12C03730FF
:1001300091F03830A1F03430B9F4809180008F7D97
:1001400003C0809180008F77809380000DC084B5BC
:100150008F7784BD09C08091B0008F7703C08091F4
:10016000B0008F7D8093B000F0E0EE0FFF1FE458E9
:10017000FF4FA591B4918FB7F894EC91611103C032
:1001800020952E2301C02E2B2C938FBF08953FB7AF
:10019000F89480912D0190912E01A0912F01B091A2
:1001A000300126B5A89B05C02F3F19F00196A11D6F
:1001B000B11D3FBFBA2FA92F982F8827820F911DFD
:1001C000A11DB11DBC01CD0142E0660F771F881F44
:1001D000991F4A95D1F708958F929F92AF92BF923F
:1001E000CF92DF92EF92FF920E94C7006B017C01D9
:1001F00092E0892E912CA12CB12C0E94C700DC0129
:10020000CB018C199D09AE09BF09883E9340A10519
:10021000B10598F328EEC20E23E0D21EE11CF11CBA
:100220008A9489288A288B2829F0812C912C5401C2
:100230008394E3CFFF90EF90DF90CF90BF90AF908B
:100240009F908F9008951F920F920FB60F921124D6
:100250002F933F938F939F93AF93BF9380912901E7
:1002600090912A01A0912B01B0912C01309128018D
:1002700023E0230F2D3720F40196A11DB11D05C0E9
:1002800026E8230F0296A11DB11D2093280180931B
:10029000290190932A01A0932B01B0932C01809106
:1002A0002D0190912E01A0912F01B0913001019666
:1002B000A11DB11D80932D0190932E01A0932F01BC
:1002C000B0933001BF91AF919F918F913F912F914A
:1002D0000F900FBE0F901F901895789484B5826090
:1002E00084BD84B5816084BD85B5826085BD85B5DA
:1002F000816085BD80916E00816080936E00109258
:1003000081008091810082608093810080918100D2
:100310008160809381008091800081608093800063
:100320008091B10084608093B1008091B0008160C1
:100330008093B00080917A00846080937A008091ED
:100340007A00826080937A0080917A008160809345
:100350007A0080917A00806880937A001092C100C0
:1003600020E030E0F901EC55FF4F4491F901E057EE
:10037000FF4F8491882399F090E0880F991FFC012A
:10038000EA57FF4FA591B491FC01E458FF4F8591C6
:1003900094918FB7F894EC91E42BEC938FBF2F5F7F
:1003A0003F4F2E303105F1F6FCE3AF2EB12CAAE021
:1003B0008A2E912CB0E02B2EB0E03B2E60E088E03E
:1003C0000E947B0060E089E00E947B0066246394C9
:1003D000712CC301B5010E945D029C01CB01B501E6
:1003E0000E945D02B4010E945D026B017C01C901A3
:1003F000B4010E945D022EE2422E512C9601220F82
:10040000331FF901EC5EFE4F6F019701220F331F7E
:10041000A90140505F4F7A018B01000F111F0C5E44
:100420001E4FEC01CC0FDD1FCC5EDE4F61E08AE099
:100430000E947B00F60180818BB90E94EC0060E095
:100440008AE00E947B0061E08BE00E947B00F70164
:1004500080818BB90E94EC0060E08BE00E947B0001
:1004600061E08CE00E947B00F80180818BB90E94E2
:10047000EC0060E08CE00E947B0061E08DE00E9477
:100480007B0088818BB90E94EC0060E08DE00E94C7
:100490007B00F1E04F1A510849F64FEF641A740AD5
:1004A00051E165165EE0750609F093CF2114310421
:1004B00009F484CF0E94000081CF97FB072E16F429
:1004C000009407D077FD09D00E94710207FC05D087
:1004D0003EF4909581959F4F0895709561957F4F5B
:1004E0000895AA1BBB1B51E107C0AA1FBB1FA6177B
:1004F000B70710F0A61BB70B881F991F5A95A9F7CD
:0E05000080959095BC01CD010895F894FFCF31
:10050E004000790024003000190012000200F800AB
:10051E0000001000C000F900A400B0009900920085
:08052E008200F800800090003B
:00000001FF
