:100000000C945D000C9485000C9485000C94850084
:100010000C9485000C9485000C9485000C9485004C
:100020000C9485000C9485000C9485000C9485003C
:100030000C9485000C9485000C9485000C9485002C
:100040000C94EA020C9485000C9485000C948500B5
:100050000C9485000C9485000C9485000C9485000C
:100060000C9485000C94850000000008000201003B
:100070000003040700000000000000000000000072
:10008000250028002B0000000000240027002A0083
:10009000040404040404040402020202020203032E
:1000A0000303030301020408102040800102040836
:1000B0001020010204081020EF0311241FBECFEF0F
:1000C000D8E0DEBFCDBF11E0A0E0B1E0E6E3F8E0AC
:1000D00002C005900D92A032B107D9F721E0A0E24D
:1000E000B1E001C01D92A134B207E1F710E0CDE507
:1000F000D0E004C02197FE010E940E04CC35D10748
:10010000C9F70E9434030C9419040C94000090E089
:10011000FC01EC55FF4F2491FC01E057FF4F849107
:10012000882399F090E0880F991FFC01EA57FF4F50
:10013000A591B491FC01E458FF4F859194918FB73C
:10014000F894EC91E22BEC938FBF0895CF92DF925D
:10015000EF92FF920F931F93CF93DF936C017A017D
:100160008B01C0E0D0E0CE15DF0589F0D8016D919C
:100170008D01D601ED91FC910190F081E02DC60139
:100180000995892B11F47E0102C02196ECCFC7019D
:10019000DF91CF911F910F91FF90EF90DF90CF9063
:1001A000089590E0FC01E859FF4F3491FC01EC55B3
:1001B000FF4F2491FC01E057FF4FE491EE2309F437
:1001C0003BC0332339F1333091F038F43130A9F0AA
:1001D000323001F584B58F7D12C0373091F0383060
:1001E000A1F03430B9F4809180008F7D03C08091FC
:1001F00080008F77809380000DC084B58F7784BD99
:1002000009C08091B0008F7703C08091B0008F7DCE
:100210008093B000F0E0EE0FFF1FE458FF4FA59170
:10022000B4918FB7F894EC91611103C020952E23FF
:1002300001C02E2B2C938FBF08953FB7F894809167
:10024000250190912601A0912701B091280126B5A2
:10025000A89B05C02F3F19F00196A11DB11D3FBFFE
:10026000BA2FA92F982F8827820F911DA11DB11D8C
:10027000BC01CD0142E0660F771F881F991F4A9588
:10028000D1F708958F929F92AF92BF92CF92DF9253
:10029000EF92FF926B017C010E941D014B015C01FA
:1002A000C114D104E104F104F1F00E941D01DC014C
:1002B000CB0188199909AA09BB09883E9340A10579
:1002C000B10570F321E0C21AD108E108F10888EE07
:1002D000880E83E0981EA11CB11CC114D104E10456
:1002E000F10419F7DDCFFF90EF90DF90CF90BF9032
:1002F000AF909F908F900895CF93DF93EC0160E0D3
:100300008E810E94D10061E08E810E94D10060E068
:100310008E810E94D1008BE891E00197F1F7DF9187
:10032000CF910895CF92DF92EF92FF920F931F9398
:10033000CF93DF937C016C0187E0C80ED11CC0E035
:10034000D0E0062F10E0B8010C2E02C0759567951D
:100350000A94E2F76170F60181916F010E94D10069
:100360002196C430D10579F7C701DF91CF911F9154
:100370000F91FF90EF90DF90CF900C947C01CF9283
:10038000DF92EF92FF920F931F93CF93DF93EC01D5
:10039000F62E642F8C810E94D1008D818F3F19F041
:1003A00060E00E94D1008F850F2D10E084FF25C0F2
:1003B0006E0187E0C80ED11CE12CF12CB8010E2C87
:1003C00002C0759567950A94E2F76170F601819114
:1003D0006F010E94D100FFEFEF1AFF0A88E0E816D4
:1003E000F10461F7CE01DF91CF911F910F91FF9042
:1003F000EF90DF90CF900C947C01B80184E075956C
:1004000067958A95E1F7CE010E9492016F2DCE018A
:10041000DF91CF911F910F91FF90EF90DF90CF90E0
:100420000C94920141E00E94BF0181E090E00895A8
:1004300040E00C94BF01EF92FF920F931F93CF9374
:10044000DF93EC01623018F08F8588608F876B8BAB
:100450001C8A80E48D8B80E18E8B80E58F8B8C8174
:100460000E9487008D818F3F11F00E9487008E814E
:100470000E9487007E0187E0E80EF11C00E010E09A
:100480008F8584FD03C084E090E002C088E090E0A6
:100490000817190744F4F70181917F010E94870032
:1004A0000F5F1F4FEDCF8BE39DE00197F1F760E009
:1004B0008C810E94D10060E08E810E94D1008D81EC
:1004C0008F3F19F060E00E94D1006F8564FD1DC070
:1004D00063E0CE010E9492010BE416E4C80101978B
:1004E000F1F763E0CE010E949201C8010197F1F794
:1004F00063E0CE010E94920183E592E00197F1F75B
:1005000062E0CE010E94920116C06062CE010E949C
:1005100018028BE496E40197F1F76F856062CE01D3
:100520000E94180283E592E00197F1F76F856062FF
:10053000CE010E9418026F856062CE010E941802EF
:1005400084E0888B6CE0CE010E94180261E0CE014D
:100550000E9418028BE39FE10197F1F782E0898BFB
:1005600066E0CE01DF91CF911F910F91FF90EF9048
:100570000C941802EF92FF920F931F93CF93DF9387
:100580001F92CDB7DEB7162F877028E0829FC0017B
:100590001124682F606489E291E079830E94180237
:1005A000E12E7981F72E8701085F1F4FF7016191D6
:1005B0007F0189E291E00E941202E016F106B1F794
:1005C0000F90DF91CF911F910F91FF90EF900895C1
:1005D0000E9414041F920F920FB60F9211242F93B2
:1005E0003F938F939F93AF93BF93809121019091FD
:1005F0002201A0912301B09124013091200123E038
:10060000230F2D3720F40196A11DB11D05C026E84A
:10061000230F0296A11DB11D20932001809321017B
:1006200090932201A0932301B0932401809125018E
:1006300090912601A0912701B09128010196A11D5A
:10064000B11D8093250190932601A0932701B093BB
:100650002801BF91AF919F918F913F912F910F9062
:100660000FBE0F901F901895789484B5826084BD5A
:1006700084B5816084BD85B5826085BD85B58160A6
:1006800085BD80916E00816080936E001092810024
:1006900080918100826080938100809181008160DF
:1006A00080938100809180008160809380008091A0
:1006B000B10084608093B1008091B000816080932C
:1006C000B00080917A00846080937A0080917A00F3
:1006D000826080937A0080917A00816080937A00B2
:1006E00080917A00806880937A001092C10062E065
:1006F00089E291E00E941B0260E171E080E00E94CB
:10070000BA0268E071E081E00E94BA0260E071E044
:1007100082E00E94BA02CBE3DFE100E010E0F12CBE
:10072000E1E080913C018111E0E0E195F0E0E75DDE
:10073000FE4F6489685F606889E291E00E94180258
:1007400060E089E291E00E941202E1E080913C01C8
:100750008111E0E0E195F0E0E75DFE4F64896F0D07
:10076000606889E291E00E94180261E089E291E00C
:100770000E94120264E670E080E090E00E94420174
:1007800061E089E291E00E941802CE010197F1F741
:10079000F39489E0F812C4CFE0913C01E23010F408
:1007A000E15001C0E1E0F0E0E75DFE4F6489675F82
:1007B000606889E291E00E94180262E089E291E0BB
:1007C0000E94120264EF71E080E090E00E9442011A
:1007D0000115110509F4A3CF0E940000A0CFE9E2A2
:1007E000F1E0138212828CE191E0918380838CE0AE
:1007F00084838FEF85838BE0868385E0878384E025
:10080000808783E0818782E082871386148615863D
:100810001686178661E0CF010C941B02EE0FFF1FB6
:100820000590F491E02D099481E090E0F8940C9407
:060830001904F894FFCF4B
:100836000001070E1C0E07010004021F020400003F
:10084600000A1F1F1F0E0400000000001202A6006F
:00000001FF
