:100000000C945C000C9479000C9479000C947900A9
:100010000C9479000C9479000C9479000C9479007C
:100020000C9479000C9479000C9479000C9479006C
:100030000C9479000C9479000C9479000C9479005C
:100040000C9406010C9479000C9479000C947900BE
:100050000C9479000C9479000C9479000C9479003C
:100060000C9479000C947900000000080002010053
:100070000003040700000000000000000000000072
:10008000250028002B0000000000240027002A0083
:10009000040404040404040402020202020203032E
:1000A0000303030301020408102040800102040836
:1000B000102001020408102011241FBECFEFD8E049
:1000C000DEBFCDBF11E0A0E0B1E0ECECF4E002C097
:1000D00005900D92A431B107D9F721E0A4E1B1E078
:1000E00001C01D92AD31B207E1F70E9450010C949E
:1000F00064020C94000090E0FC01E859FF4F349139
:10010000FC01EC55FF4F2491FC01E057FF4FE491B7
:10011000EE2309F43BC0332339F1333091F038F446
:100120003130A9F0323001F584B58F7D12C03730FF
:1001300091F03830A1F03430B9F4809180008F7D97
:1001400003C0809180008F77809380000DC084B5BC
:100150008F7784BD09C08091B0008F7703C08091F4
:10016000B0008F7D8093B000F0E0EE0FFF1FE458E9
:10017000FF4FA591B4918FB7F894EC91611103C032
:1001800020952E2301C02E2B2C938FBF08953FB7AF
:10019000F8948091190190911A01A0911B01B091DE
:1001A0001C0126B5A89B05C02F3F19F00196A11D83
:1001B000B11D3FBFBA2FA92F982F8827820F911DFD
:1001C000A11DB11DBC01CD0142E0660F771F881F44
:1001D000991F4A95D1F70895CF92DF92EF92FF923F
:1001E0000E94C7006B017C010E94C700DC01CB01AB
:1001F0008C199D09AE09BF09883E9340A105B10540
:1002000098F3FF90EF90DF90CF9008951F920F9298
:100210000FB60F9211242F933F938F939F93AF9319
:10022000BF938091150190911601A0911701B09193
:1002300018013091140123E0230F2D3720F401968B
:10024000A11DB11D05C026E8230F0296A11DB11DF9
:10025000209314018093150190931601A093170128
:10026000B09318018091190190911A01A0911B017E
:10027000B0911C010196A11DB11D809319019093AD
:100280001A01A0931B01B0931C01BF91AF919F91E4
:100290008F913F912F910F900FBE0F901F90189547
:1002A000789484B5826084BD84B5816084BD85B551
:1002B000826085BD85B5816085BD80916E0081605D
:1002C00080936E0010928100809181008260809303
:1002D0008100809181008160809381008091800005
:1002E0008160809380008091B10084608093B10030
:1002F0008091B00081608093B00080917A0084602A
:1003000080937A0080917A00826080937A00809155
:100310007A00816080937A0080917A00806880936F
:100320007A001092C10020E030E0F901EC55FF4F57
:100330004491F901E057FF4F8491882399F090E0B0
:10034000880F991FFC01EA57FF4FA591B491FC015A
:10035000E458FF4F859194918FB7F894EC91E42B7A
:10036000EC938FBF2F5F3F4F2C303105F1F6E4E661
:100370002E2E312CFAE0AF2EB12CA0E08A2EA0E078
:100380009A2E612C712CC30168EE73E00E943C022E
:100390006B01C301B1010E943C02CB01B5010E9477
:1003A0003C027C01C301B5010E943C02EC01CB017F
:1003B000B5010E943C0225E6422E512C9601220FE7
:1003C000331FF901E050FF4F6F019701220F331FD8
:1003D000A90140505F4F7A018C01000F111F00509E
:1003E0001F4FCC0FDD1FC050DF4F61E088E00E943F
:1003F0007B00F60180818BB90E94EC0060E088E010
:100400000E947B0061E089E00E947B00F70180810F
:100410008BB90E94EC0060E089E00E947B0061E003
:100420008AE00E947B00F80180818BB90E94EC0079
:1004300060E08AE00E947B0061E08BE00E947B002C
:1004400088818BB90E94EC0060E08BE00E947B0009
:10045000F1E04F1A510849F64FEF641A740A50E15F
:10046000651657E2750609F08ECF8114910409F4E0
:1004700088CF0E94000085CF97FB072E16F40094CA
:1004800007D077FD09D00E94500207FC05D03EF44A
:10049000909581959F4F0895709561957F4F089530
:1004A000AA1BBB1B51E107C0AA1FBB1FA617B7079A
:1004B00010F0A61BB70B881F991F5A95A9F78095B6
:0C04C0009095BC01CD010895F894FFCF89
:1004CC00C000F900A400B000990092008200F8006E
:0404DC00800090000C
:00000001FF
