:100000000C9461000C947E000C947E000C947E0095
:100010000C947E000C947E000C947E000C947E0068
:100020000C947E000C947E000C947E000C947E0058
:100030000C947E000C947E000C947E000C947E0048
:100040000C9464010C947E000C947E000C947E0051
:100050000C947E000C947E000C947E000C947E0028
:100060000C947E000C947E00000000002500280007
:100070002B0000000000240027002A0000000000E0
:1000800023002600290004040404040404040202DA
:100090000202020203030303030301020408102007
:1000A0004080010204081020010204081020000012
:1000B0000008000201000003040700000000000027
:1000C000000011241FBECFEFD8E0DEBFCDBF11E08E
:1000D000A0E0B1E0E8E9F7E002C005900D92A43598
:1000E000B107D9F721E0A4E5B1E001C01D92AD351B
:1000F000B207E1F70E94AE010C94CA030C94000011
:1001000090E0FC01E255FF4F2491FC01E656FF4FC1
:100110003491FC01EA57FF4FE491EE23B9F1222319
:1001200039F1233091F038F42130A9F0223001F573
:1001300084B58F7D12C0273091F02830A1F0243093
:10014000B9F4809180008F7D03C0809180008F770B
:10015000809380000DC084B58F7784BD09C08091E5
:10016000B0008F7703C08091B0008F7D8093B00086
:10017000F0E0EE0FFF1FE458FF4FA591B491EC9112
:100180003E2381E090E021F480E0089580E090E05B
:100190000895CF93DF9390E0FC01E656FF4F249142
:1001A000FC01EA57FF4F8491882361F190E0880FAA
:1001B000991FFC01EE58FF4FC591D491FC01E859FD
:1001C000FF4FA591B491611109C09FB7F894888140
:1001D000209582238883EC912E230BC0623061F43A
:1001E0009FB7F8943881822F809583238883EC9180
:1001F0002E2B2C939FBF06C08FB7F894E8812E2B2F
:1002000028838FBFDF91CF9108953FB7F8948091F5
:10021000590190915A01A0915B01B0915C0126B502
:10022000A89B05C02F3F19F00196A11DB11D3FBF2E
:10023000BA2FA92F982F8827820F911DA11DB11DBC
:10024000BC01CD0142E0660F771F881F991F4A95B8
:10025000D1F708958F929F92AF92BF92CF92DF9283
:10026000EF92FF926B017C010E9405014B015C0142
:10027000C114D104E104F104F1F00E940501DC0194
:10028000CB0188199909AA09BB09883E9340A105A9
:10029000B10570F321E0C21AD108E108F10888EE37
:1002A000880E83E0981EA11CB11CC114D104E10486
:1002B000F10419F7DDCFFF90EF90DF90CF90BF9062
:1002C000AF909F908F9008951F920F920FB60F924C
:1002D00011242F933F938F939F93AF93BF9380915C
:1002E000550190915601A0915701B091580130915C
:1002F000540123E0230F2D3720F40196A11DB11DD9
:1003000005C026E8230F0296A11DB11D20935401BC
:100310008093550190935601A0935701B0935801D3
:100320008091590190915A01A0915B01B0915C01BB
:100330000196A11DB11D8093590190935A01A0937C
:100340005B01B0935C01BF91AF919F918F913F9101
:100350002F910F900FBE0F901F901895789484B531
:10036000826084BD84B5816084BD85B5826085BDB1
:1003700085B5816085BD80916E00816080936E003F
:100380001092810080918100826080938100809131
:1003900081008160809381008091800081608093E2
:1003A00080008091B10084608093B1008091B000A2
:1003B00081608093B00080917A00846080937A009D
:1003C00080917A00826080937A0080917A008160C7
:1003D00080937A0080917A00806880937A001092EE
:1003E000C100C0E061E08C2F0E94C900CF5FC8301F
:1003F000C9F762E08EE00E94C90062E08FE00E94CF
:10040000C90062E080E10E94C90062E081E10E94CF
:10041000C90062E082E10E94C90062E083E10E94BB
:10042000C9001BB88EE00E9480000197C9F48FE0DC
:100430000E9480000197A1F480E10E948000019752
:1004400079F481E10E948000019751F482E10E94D9
:100450008000019729F483E10E948000019709F34D
:100460008EE00E948000892BF1F08FE00E948000D6
:10047000892B09F486C080E10E948000892B09F451
:10048000BDC081E10E948000892B09F4F4C082E1A3
:100490000E948000892B09F42BC183E10E94800017
:1004A000892B09F462C18EE00E948000892B09F03B
:1004B00068C00BE010E0C0E5D1E0888122968BB9DE
:1004C00064E670E080E090E00E942A018EE00E94E5
:1004D0008000892B41F38FE00E948000892B09F472
:1004E00050C080E10E948000892B09F487C081E11F
:1004F0000E948000892B09F4BEC082E10E94800026
:10050000892B09F4F5C083E10E948000892B09F44E
:100510002CC181E0C435D80781F60150110959F684
:1005200030C080E10E948000892B09F467C081E11E
:100530000E948000892B09F49EC082E10E94800005
:10054000892B09F4D5C083E10E948000892B09F42E
:100550000CC181E0C035D807F1F0888122968BB9B3
:1005600064E670E080E090E00E942A018EE00E9444
:100570008000892B09F497CF8FE00E948000892B9F
:1005800081F68FE00E948000892BC1F50BE010E01E
:10059000CCE4D1E0E2CF01501109D1F72FC081E1C5
:1005A0000E948000892B09F466C082E10E948000CD
:1005B000892B09F49DC083E10E948000892B09F4F6
:1005C000D4C081E0CC34D80719F1888122968BB948
:1005D00062E370E080E090E00E942A018EE00E94D9
:1005E0008000892B09F45FCF8FE00E948000892B67
:1005F00041F280E10E948000892B89F680E10E940F
:100600008000892BC1F50BE010E0C8E4D1E0DDCF1C
:1006100001501109D1F72FC082E10E948000892B7F
:1006200009F466C083E10E948000892B09F49DC013
:1006300081E0C834D80749F1888122968BB962E3FA
:1006400070E080E090E00E942A018EE00E9480002D
:10065000892B09F428CF8FE00E948000892B09F4B0
:1006600090CF80E10E948000892B41F281E10E94BD
:100670008000892B89F681E10E948000892BC1F5D9
:100680000BE010E0C6E3D1E0D7CF01501109D1F75C
:100690002FC083E10E948000892B09F466C081E0AD
:1006A000C633D80779F1888122968BB962E370E06E
:1006B00080E090E00E942A018EE00E948000892B59
:1006C00009F4F1CE8FE00E948000892B09F459CF04
:1006D00080E10E948000892B09F490CF81E10E9483
:1006E0008000892B41F282E10E948000892B89F6EB
:1006F00082E10E948000892BC1F50BE010E0C4E28A
:10070000D1E0D1CF01501109D1F72FC081E0C4321F
:10071000D807A9F1888122968BB962E370E080E066
:1007200090E00E942A018EE00E948000892B09F44B
:10073000BACE8FE00E948000892B09F422CF80E19D
:100740000E948000892B09F459CF81E10E9480002A
:10075000892B09F490CF82E10E948000892B41F21D
:1007600083E10E948000892B89F683E10E9480004A
:10077000892B41F40BE010E0C0E0D1E0CBCF015079
:100780001109D1F780E090E0892B09F44ACE0E944C
:08079000000047CEF894FFCFF2
:100798008000C000E000F000F800FC00FE00FF0050
:1007A80000000100030007000F001F003F007F004A
:1007B800FF0000000100030007000F001F003F00BA
:1007C8007F00FF0000008000C000E000F000F8009B
:1007D800FC00FE00FF000000AA005500F0000F001A
:0407E800FF0000000E
:00000001FF
