:100000000C9461000C947E000C947E000C947E0095
:100010000C947E000C947E000C947E000C947E0068
:100020000C947E000C947E000C947E000C947E0058
:100030000C947E000C947E000C947E000C947E0048
:100040000C949D010C947E000C947E000C947E0018
:100050000C947E000C947E000C947E000C947E0028
:100060000C947E000C947E00000000002400270009
:100070002A0000000000250028002B0000000000DE
:1000800023002600290004040404040404040202DA
:100090000202020203030303030301020408102007
:1000A0004080010204081020010204081020000012
:1000B0000008000201000003040700000000000027
:1000C000000011241FBECFEFD8E0DEBFCDBF11E08E
:1000D000A0E0B1E0EEEDF8E002C005900D92A43191
:1000E000B107D9F721E0A4E1B1E001C01D92AD3123
:1000F000B207E1F70E94E7010C946D040C94000034
:10010000833081F028F4813099F08230A1F0089595
:100110008730A9F08830B9F08430D1F48091800024
:100120008F7D03C0809180008F7780938000089539
:1001300084B58F7702C084B58F7D84BD089580918A
:10014000B0008F7703C08091B0008F7D8093B000A6
:100150000895CF93DF93282F30E0F901E255FF4F48
:100160008491F901E656FF4FD491F901EA57FF4F08
:10017000C491CC2391F081110E948000EC2FF0E01B
:10018000EE0FFF1FE458FF4FA591B491EC91ED23C2
:1001900081E090E021F480E002C080E090E0DF9117
:1001A000CF9108951F93CF93DF93282F30E0F9016B
:1001B000E255FF4F8491F901E656FF4FD491F901C2
:1001C000EA57FF4FC491CC23C9F0162F81110E942A
:1001D0008000EC2FF0E0EE0FFF1FEE58FF4FA591CF
:1001E000B4918FB7F894111105C09C91ED2FE09553
:1001F000E92302C0EC91ED2BEC938FBFDF91CF91FF
:100200001F910895CF93DF9390E0FC01E656FF4FD6
:100210002491FC01EA57FF4F8491882361F190E01B
:10022000880F991FFC01E859FF4FC591D491FC013B
:10023000EE58FF4FA591B491611109C09FB7F89492
:100240008881209582238883EC912E230BC0623015
:1002500061F49FB7F8943881822F80958323888337
:10026000EC912E2B2C939FBF06C08FB7F894E8819A
:100270002E2B28838FBFDF91CF9108953FB7F8943D
:100280008091190190911A01A0911B01B0911C015C
:1002900026B5A89B05C02F3F19F00196A11DB11DE1
:1002A0003FBFBA2FA92F982F8827820F911DA11D1C
:1002B000B11DBC01CD0142E0660F771F881F991F59
:1002C0004A95D1F708958F929F92AF92BF92CF92A5
:1002D000DF92EF92FF926B017C010E943E014B0185
:1002E0005C01C114D104E104F104F1F00E943E016B
:1002F000DC01CB0188199909AA09BB09883E934002
:10030000A105B10570F321E0C21AD108E108F10896
:1003100088EE880E83E0981EA11CB11CC114D10484
:10032000E104F10419F7DDCFFF90EF90DF90CF905B
:10033000BF90AF909F908F9008951F920F920FB62D
:100340000F9211242F933F938F939F93AF93BF935B
:100350008091150190911601A0911701B09118019B
:100360003091140123E0230F2D3720F40196A11DB5
:10037000B11D05C026E8230F0296A11DB11D2093D3
:1003800014018093150190931601A0931701B09367
:1003900018018091190190911A01A0911B01B0914F
:1003A0001C010196A11DB11D8093190190931A01A2
:1003B000A0931B01B0931C01BF91AF919F918F91AE
:1003C0003F912F910F900FBE0F901F90189578942A
:1003D00084B5826084BD84B5816084BD85B582604A
:1003E00085BD85B5816085BD80916E0081608093FB
:1003F0006E00109281008091810082608093810064
:100400008091810081608093810080918000816073
:10041000809380008091B10084608093B1008091CE
:10042000B00081608093B00080917A0084608093F6
:100430007A0080917A00826080937A0080917A00BD
:10044000816080937A0080917A00806880937A003E
:100450001092C100C0E061E08C2F0E940201CF5FCA
:10046000CB30C9F762E08EE00E94020162E08FE0CB
:100470000E94020162E080E10E94020162E081E1EB
:100480000E94020194E6892E912CCAE0D0E028EE69
:10049000222E23E0322E8EE00E94A900019701F562
:1004A0008FE00E94A9000197D9F480E10E94A90081
:1004B0000197B1F481E10E94A900019789F460E0FD
:1004C00088E00E94D20060E089E00E94D20060E0F3
:1004D0008AE00E94D20060E08BE00E94D200DBCF75
:1004E0008EE00E94A900892B89F08FE00E94A9006C
:1004F000892BB9F180E10E94A900892B09F4E3C09E
:1005000081E10E94A900892B09F474C100E011E087
:1005100061E08BE00E94D200F80180810E5F1F4FE6
:100520008BB964EF71E080E090E00E9463018EE09F
:100530000E94A900892B51F38FE00E94A900892B0A
:1005400081F080E10E94A900892B09F4BCC081E1FF
:100550000E94A900892B09F44DC1F1E004311F0765
:10056000B9F68FE00E94A900892B09F0ACC0C12C1C
:10057000D12CC601BE010E94450417E4A12EB12C66
:10058000660F771FAB0140505F4F7A018C01000F5F
:10059000111F00501F4F61E08AE00E94D200F70156
:1005A00080818BB964E070E080E090E00E9463019C
:1005B00060E08AE00E94D20061E08BE00E94D200FD
:1005C000F80180818BB964E070E080E090E00E94E7
:1005D000630160E08BE00E94D2008EE00E94A900DF
:1005E000892B09F493CF8FE00E94A900892B09F48D
:1005F000B8CF80E10E94A900892B09F464C081E191
:100600000E94A900892B09F4F5C0F1E0AF1AB108E6
:1006100009F0C1CF2FEFC21AD20A34E6C316D104B3
:1006200009F0A7CF50C081E10E94A900892B09F4ED
:10063000E1C0F1E0AF1AB10809F472C061E089E0ED
:100640000E94D200F70180818BB962E070E080E007
:1006500090E00E94630160E089E00E94D20061E0C6
:100660008AE00E94D200F80180818BB962E070E0DC
:1006700080E090E00E94630160E08AE00E94D20086
:1006800061E08BE00E94D200F30180818BB962E0CF
:1006900070E080E090E00E94630160E08BE00E94E7
:1006A000D2008EE00E94A900892B09F42FCF8FE0A1
:1006B0000E94A900892B09F454CF80E10E94A9006F
:1006C000892B09F0B0CF80E10E94A900892B09F0A5
:1006D00091C0C12CD12CC601B4010E9445047B01FC
:1006E000C601BE010E9445043C01CB01BE010E942F
:1006F0004504E1E5AE2EB12C9701220F331FA9016D
:1007000040505F4F7A018C01000F111F00501F4FA6
:10071000C301880F991FFC01E050FF4F3F018ECFAE
:100720002FEFC21AD20A38EEC31633E0D30699F679
:1007300061C0F1E0AF1AB10809F499C061E088E046
:100740000E94D200F60180818BB961E070E080E008
:1007500090E00E94630160E088E00E94D20061E0C6
:1007600089E00E94D200F70180818BB961E070E0DE
:1007700080E090E00E94630160E089E00E94D20086
:1007800061E08AE00E94D200F30180818BB961E0D0
:1007900070E080E090E00E94630160E08AE00E94E7
:1007A000D20061E08BE00E94D200F20180818BB91F
:1007B00061E070E080E090E00E94630160E08BE027
:1007C0000E94D2008EE00E94A900892B09F49ECEDF
:1007D0008FE00E94A900892B09F4C3CE80E10E941A
:1007E000A900892B09F46FCF81E10E94A900892B10
:1007F00009F09FCF81E10E94A900892BF1F500E06B
:1008000010E0C801B1010E9445046B01C801B401A8
:100810000E944504CB01BE010E9445047C01C80131
:10082000BE010E9445042C01CB01BE010E9445047B
:1008300025E6A22EB12C9601220F331FA9014050AC
:100840005F4F6A019701220F331FF901E050FF4FFC
:100850007F01880F991F9C0120503F4F3901C20131
:10086000880F991FAC0140505F4F2A0167CF0F5F7F
:100870001F4F003127E2120721F680E090E0892B1C
:1008800009F409CE0E94000006CE97FB072E16F44D
:10089000009407D077FD09D00E94590407FC05D0C9
:1008A0003EF4909581959F4F0895709561957F4F87
:1008B0000895AA1BBB1B51E107C0AA1FBB1FA617A7
:1008C000B70710F0A61BB70B881F991F5A95A9F7F9
:0E08D00080959095BC01CD010895F894FFCF5E
:1008DE00C000F900A400B000990092008200F80058
:0408EE0080009000F6
:00000001FF
