:100000000C9452000C946F000C946F000C946F00D1
:100010000C946F000C946F000C946F000C946F00A4
:100020000C946F000C946F000C946F000C946F0094
:100030000C946F000C946F000C946F000C946F0084
:100040000C9496000C946F000C946F000C946F004D
:100050000C946F000C946F000C946F000C946F0064
:100060000C946F000C946F00000000002500280025
:100070002B0000000000240027002A0004040404D0
:100080000404040402020202020203030303030342
:10009000010204081020408001020408102001021F
:1000A0000408102011241FBECFEFD8E0DEBFCDBF63
:1000B00011E0A0E0B1E0E0E0F3E002C005900D92B5
:1000C000A231B107D9F721E0A2E1B1E001C01D9250
:1000D000AB31B207E1F70E94E0000C947E010C9472
:1000E00000003FB7F8948091170190911801A091FA
:1000F0001901B0911A0126B5A89B05C02F3F19F030
:100100000196A11DB11D3FBFBA2FA92F982F882797
:10011000820F911DA11DB11DBC01CD0142E0660FF2
:10012000771F881F991F4A95D1F708951F920F9244
:100130000FB60F9211242F933F938F939F93AF93FA
:10014000BF938091130190911401A0911501B0917A
:1001500016013091120123E0230F2D3720F4019670
:10016000A11DB11D05C026E8230F0296A11DB11DDA
:10017000209312018093130190931401A093150111
:10018000B09316018091170190911801A091190167
:10019000B0911A010196A11DB11D80931701909392
:1001A0001801A0931901B0931A01BF91AF919F91CB
:1001B0008F913F912F910F900FBE0F901F90189528
:1001C000789484B5826084BD84B5816084BD85B532
:1001D000826085BD85B5816085BD80916E0081603E
:1001E00080936E00109281008091810082608093E4
:1001F00081008091810081608093810080918000E6
:100200008160809380008091B10084608093B10010
:100210008091B00081608093B00080917A0084600A
:1002200080937A0080917A00826080937A00809136
:100230007A00816080937A0080917A008068809350
:100240007A001092C10020E030E0F901E057FF4F42
:100250004491F901E458FF4F8491882399F090E08C
:10026000880F991FFC01EE58FF4FA591B491FC0136
:10027000E859FF4F859194918FB7F894EC91E42B56
:10028000EC938FBF2F5F3F4F28303105F1F600E030
:1002900010E0C0E0D1E0888122968BB90E94710005
:1002A0004B015C0182E3C82ED12CE12CF12C0E9481
:1002B0007100DC01CB0188199909AA09BB09883EA4
:1002C0009340A105B10558F021E0C21AD108E10818
:1002D000F10888EE880E83E0981EA11CB11CC114A1
:1002E000D104E104F10419F781E0C231D80799F68D
:1002F0000115110571F20E940000CBCFF894FFCFD9
:100300000100030007000F001F003F007F00FF00F7
:020310000000EB
:00000001FF
