:100000000C945C000C9479000C9479000C947900A9
:100010000C9479000C9479000C9479000C9479007C
:100020000C9479000C9479000C9479000C9479006C
:100030000C9479000C9479000C9479000C9479005C
:100040000C9423010C9479000C9479000C947900A1
:100050000C9479000C9479000C9479000C9479003C
:100060000C9479000C947900000000080002010053
:100070000003040700000000000000000000000072
:10008000250028002B0000000000240027002A0083
:10009000040404040404040402020202020203032E
:1000A0000303030301020408102040800102040836
:1000B000102001020408102011241FBECFEFD8E049
:1000C000DEBFCDBF11E0A0E0B1E0E4E8F4E002C0A3
:1000D00005900D92A431B107D9F721E0A4E1B1E078
:1000E00001C01D92AD31B207E1F70E946D010C9481
:1000F00040020C94000090E0FC01E859FF4F34915D
:10010000FC01EC55FF4F2491FC01E057FF4FE491B7
:10011000EE2309F43BC0332339F1333091F038F446
:100120003130A9F0323001F584B58F7D12C03730FF
:1001300091F03830A1F03430B9F4809180008F7D97
:1001400003C0809180008F77809380000DC084B5BC
:100150008F7784BD09C08091B0008F7703C08091F4
:10016000B0008F7D8093B000F0E0EE0FFF1FE458E9
:10017000FF4FA591B4918FB7F894EC91611103C032
:1001800020952E2301C02E2B2C938FBF08953FB7AF
:10019000F8948091190190911A01A0911B01B091DE
:1001A0001C0126B5A89B05C02F3F19F00196A11D83
:1001B000B11D3FBFBA2FA92F982F8827820F911DFD
:1001C000A11DB11DBC01CD0142E0660F771F881F44
:1001D000991F4A95D1F708958F929F92AF92BF923F
:1001E000CF92DF92EF92FF920E94C7004B015C0119
:1001F00084E0C82ED12CE12CF12C0E94C700DC0138
:10020000CB0188199909AA09BB09883E9340A10529
:10021000B10558F021E0C21AD108E108F10888EED2
:10022000880E83E0981EA11CB11CC114D104E10406
:10023000F10419F7FF90EF90DF90CF90BF90AF904F
:100240009F908F9008951F920F920FB60F921124D6
:100250002F933F938F939F93AF93BF9380911501FB
:1002600090911601A0911701B091180130911401DD
:1002700023E0230F2D3720F40196A11DB11D05C0E9
:1002800026E8230F0296A11DB11D2093140180932F
:10029000150190931601A0931701B0931801809156
:1002A000190190911A01A0911B01B0911C010196B6
:1002B000A11DB11D8093190190931A01A0931B01F8
:1002C000B0931C01BF91AF919F918F913F912F915E
:1002D0000F900FBE0F901F901895789484B5826090
:1002E00084BD84B5816084BD85B5826085BD85B5DA
:1002F000816085BD80916E00816080936E00109258
:1003000081008091810082608093810080918100D2
:100310008160809381008091800081608093800063
:100320008091B10084608093B1008091B0008160C1
:100330008093B00080917A00846080937A008091ED
:100340007A00826080937A0080917A008160809345
:100350007A0080917A00806880937A001092C100C0
:1003600020E030E0F901EC55FF4F4491F901E057EE
:10037000FF4F8491882399F090E0880F991FFC012A
:10038000EA57FF4FA591B491FC01E458FF4F8591C6
:1003900094918FB7F894EC91E42BEC938FBF2F5F7F
:1003A0003F4F2A303105F1F65AE0E52EF12C60E09E
:1003B000C62E60E0D62EA12CB12CC501B7010E943B
:1003C000180227E4822E912C660F771F8B010050B4
:1003D0001F4FEC01CC0FDD1FC050DF4F61E088E004
:1003E0000E947B00F80180818BB90E94EC0060E0E4
:1003F00088E00E947B0061E089E00E947B008881A8
:100400008BB90E94EC0060E089E00E947B00F1E083
:100410008F1A910819F78FEFA81AB80AE4E6AE16FA
:10042000B10459F6C114D10431F20E940000C3CFC7
:1004300097FB072E16F4009407D077FD09D00E9491
:100440002C0207FC05D03EF4909581959F4F0895AE
:10045000709561957F4F0895AA1BBB1B51E107C0A2
:10046000AA1FBB1FA617B70710F0A61BB70B881F44
:10047000991F5A95A9F780959095BC01CD010895D3
:04048000F894FFCF1E
:10048400C000F900A400B000990092008200F800B6
:040494008000900054
:00000001FF
