:100000000C9462000C948A000C948A000C948A0070
:100010000C948A000C948A000C948A000C948A0038
:100020000C948A000C948A000C948A000C948A0028
:100030000C948A000C948A000C948A000C948A0018
:100040000C94BA030C948A000C948A000C948A00D5
:100050000C948A000C948A000C948A000C948A00F8
:100060000C948A000C948A000000000024002700F1
:100070002A0000000000250028002B0000000000DE
:1000800023002600290004040404040404040202DA
:100090000202020203030303030301020408102007
:1000A0004080010204081020010204081020000012
:1000B0000008000201000003040700000000000027
:1000C00000008C0511241FBECFEFD8E0DEBFCDBFEE
:1000D00011E0A0E0B1E0E2EBFBE002C005900D9280
:1000E000A031B107D9F721E0A0E1B1E001C01D9234
:1000F000A133B207E1F710E0C2E6D0E004C02197D7
:10010000FE010E94CC05C136D107C9F70E94040444
:100110000C94D7050C940000CF92DF92EF92FF92DF
:100120000F931F93CF93DF936C017A018B01C0E093
:10013000D0E0CE15DF0589F0D8016D918D01D60193
:10014000ED91FC910190F081E02DC6010995892B7C
:1001500011F47E0102C02196ECCFC701DF91CF914F
:100160001F910F91FF90EF90DF90CF900895833013
:1001700081F028F4813099F08230A1F00895873021
:10018000A9F08830B9F08430D1F4809180008F7D5F
:1001900003C0809180008F7780938000089584B59C
:1001A0008F7702C084B58F7D84BD08958091B000A3
:1001B0008F7703C08091B0008F7D8093B000089549
:1001C000CF93DF93282F30E0F901E255FF4F849160
:1001D000F901E656FF4FD491F901EA57FF4FC49158
:1001E000CC2391F081110E94B700EC2FF0E0EE0FCC
:1001F000FF1FE458FF4FA591B491EC91ED2381E0EE
:1002000090E021F480E002C080E090E0DF91CF91A7
:1002100008951F93CF93DF93282F30E0F901E25523
:10022000FF4F8491F901E656FF4FD491F901EA5747
:10023000FF4FC491CC23C9F0162F81110E94B70043
:10024000EC2FF0E0EE0FFF1FEE58FF4FA591B49199
:100250008FB7F894111105C09C91ED2FE095E9231B
:1002600002C0EC91ED2BEC938FBFDF91CF911F91EA
:100270000895CF93DF9390E0FC01E656FF4F249161
:10028000FC01EA57FF4F8491882361F190E0880FC9
:10029000991FFC01E859FF4FC591D491FC01EE581C
:1002A000FF4FA591B491611109C09FB7F89488815F
:1002B000209582238883EC912E230BC0623061F459
:1002C0009FB7F8943881822F809583238883EC919F
:1002D0002E2B2C939FBF06C08FB7F894E8812E2B4E
:1002E00028838FBFDF91CF9108953FB7F894809115
:1002F000150190911601A0911701B091180126B532
:10030000A89B05C02F3F19F00196A11DB11D3FBF4D
:10031000BA2FA92F982F8827820F911DA11DB11DDB
:10032000BC01CD0142E0660F771F881F991F4A95D7
:10033000D1F708958F929F92AF92BF92CF92DF92A2
:10034000EF92FF920E9475014B015C0188ECC82E70
:10035000D12CE12CF12C0E947501DC01CB01881914
:100360009909AA09BB09883E9340A105B10558F037
:1003700021E0C21AD108E108F10888EE880E83E076
:10038000981EA11CB11CC114D104E104F10419F799
:10039000FF90EF90DF90CF90BF90AF909F908F90A5
:1003A0000895CF93DF93EC0160E08E810E940901F4
:1003B00061E08E810E94090160E08E810E94090146
:1003C0008BE891E00197F1F7DF91CF910895CF92FB
:1003D000DF92EF92FF920F931F93CF93DF937C01F5
:1003E0006C0187E0C80ED11CC0E0D0E0062F10E001
:1003F000B8010C2E02C0759567950A94E2F76170FA
:10040000F60181916F010E9409012196C430D10546
:1004100079F7C701DF91CF911F910F91FF90EF9076
:10042000DF90CF900C94D101CF92DF92EF92FF92A8
:100430000F931F93CF93DF93EC01F62E642F8C81E3
:100440000E9409018D818F3F19F060E00E9409012F
:100450008F850F2D10E084FF25C06E0187E0C80E48
:10046000D11CE12CF12CB8010E2C02C075956795BA
:100470000A94E2F76170F60181916F010E9409010F
:10048000FFEFEF1AFF0A88E0E816F10461F7CE01EA
:10049000DF91CF911F910F91FF90EF90DF90CF9060
:1004A0000C94D101B80184E0759567958A95E1F7C0
:1004B000CE010E94E7016F2DCE01DF91CF911F91F8
:1004C0000F91FF90EF90DF90CF900C94E70141E007
:1004D0000E94140281E090E0089540E00C94140220
:1004E000682FE1E080912C018111E0E0E195F0E0DE
:1004F000E75EFE4F9489690F606889E191E00C9492
:100500006D0261E00E946D028BE39FE10197F1F7BC
:100510000895EF92FF920F931F93CF93DF93EC0117
:10052000623018F08F8588608F876B8B1C8A80E41F
:100530008D8B80E18E8B80E58F8B61E08C810E94BA
:1005400039018D818F3F19F061E00E94390161E02E
:100550008E810E9439017E0187E0E80EF11C00E0E7
:1005600010E08F8584FD03C084E090E002C088E045
:1005700090E0081719074CF461E0F70181917F01C1
:100580000E9439010F5F1F4FECCF8BE39DE0019775
:10059000F1F760E08C810E94090160E08E810E9489
:1005A00009018D818F3F19F060E00E9409016F857C
:1005B00064FD1DC063E0CE010E94E7010BE416E478
:1005C000C8010197F1F763E0CE010E94E701C8017D
:1005D0000197F1F763E0CE010E94E70183E592E025
:1005E0000197F1F762E0CE010E94E70116C0606258
:1005F000CE010E946D028BE496E40197F1F76F85BE
:100600006062CE010E946D0283E592E00197F1F7EE
:100610006F856062CE010E946D026F856062CE01BF
:100620000E946D0284E0888B6CE0CE010E946D0216
:10063000CE010E94810282E0898B66E0CE01DF91CB
:10064000CF911F910F91FF90EF900C946D02089540
:1006500080E090E00895009769F0FC01019000208F
:10066000E9F73197AF01481B590BBC0189E191E0D3
:100670000C948C0080E090E008958F929F92AF924E
:10068000BF92CF92DF92EF92FF920F931F93CF937F
:10069000DF93CDB7DEB7A1970FB6F894DEBF0FBEDC
:1006A000CDBF6C01990FEE08FF08F7FE31C0E09155
:1006B0001901F0911A010190F081E02D6DE289E1BC
:1006C00091E009958C0122273327A9012C193D09B6
:1006D0004E095F0919A2CE0181967C019AE0892E0C
:1006E000912CA12CB12CCA01B901A50194010E9441
:1006F000AA05605DF70162937F012115310541056F
:10070000510589F7CF010E942B03800F911F1DC057
:10071000A701960119A28E010F5D1F4F8AE0C82E16
:10072000D12CE12CF12CCA01B901A70196010E943C
:10073000AA05605DF80162938F012115310541051D
:10074000510589F7CF010E942B03A1960FB6F894AB
:10075000DEBF0FBECDBFDF91CF911F910F91FF90F4
:10076000EF90DF90CF90BF90AF909F908F900895C3
:100770000E94D2051F920F920FB60F9211242F9351
:100780003F938F939F93AF93BF938091110190916B
:100790001201A0911301B09114013091100123E0D6
:1007A000230F2D3720F40196A11DB11D05C026E8A9
:1007B000230F0296A11DB11D2093100180931101FA
:1007C00090931201A0931301B0931401809115012D
:1007D00090911601A0911701B09118010196A11DE9
:1007E000B11D8093150190931601A0931701B0934A
:1007F0001801BF91AF919F918F913F912F910F90D1
:100800000FBE0F901F901895789484B5826084BDB8
:1008100084B5816084BD85B5826085BD85B5816004
:1008200085BD80916E00816080936E001092810082
:10083000809181008260809381008091810081603D
:1008400080938100809180008160809380008091FE
:10085000B10084608093B1008091B000816080938A
:10086000B00080917A00846080937A0080917A0051
:10087000826080937A0080917A00816080937A0010
:1008800080917A00806880937A001092C10062E0C3
:1008900089E191E00E94890262E08EE00E943901C4
:1008A00062E08FE00E94390162E080E10E9439013C
:1008B00062E081E10E94390100E010E08EE00E94D8
:1008C000E000892B89F08FE00E94E000892BC9F1BC
:1008D00080E10E94E000892B09F49FC081E10E9421
:1008E000E000892B09F4DBC08EE00E94E000892B38
:1008F00041F5C0E0D0E080E00E947002CE010E948D
:100900003D030E949A0189E191E00E9481028EE0FC
:100910000E94E000892B41F38FE00E94E000892BC8
:1009200081F080E10E94E000892B09F476C081E12A
:100930000E94E000892B09F4B2C02196CA30D1058B
:10094000D1F68FE00E94E000892B09F066C0C0E07C
:10095000D0E080E0CA30D1053CF40E9470028EE005
:1009600091E00E942B0381E00E947002CE010E9460
:100970003D030E949A0189E191E00E9481028EE08C
:100980000E94E000892B09F4AFCF8FE00E94E000C5
:10099000892BB9F280E10E94E000892BF1F181E11D
:1009A0000E94E000892B09F47AC02196C436D10553
:1009B00081F633C081E10E94E000892B09F46FC009
:1009C0002196C73E23E0D20709F469C0CA30D10599
:1009D00064F580E00E9470028DE091E00E942B039C
:1009E00082E00E947002CE010E943D030E949A01A3
:1009F00089E191E00E9481028EE00E94E000892B53
:100A000009F472CF8FE00E94E000892B09F499CF9E
:100A100080E10E94E000892B69F680E10E94E000FD
:100A2000892BE9F5C0E0D0E0D1CFCE010A978A3515
:100A3000910548F480E00E9470028EE091E00E94EF
:100A40002B0381E0CECF80E0CCCFC0E0D0E0CA3035
:100A5000D1058CF580E00E9470028CE091E00E944C
:100A60002B0383E00E947002CE010E943D030E948E
:100A70009A018EE00E94E000892B09F435CF8FE0C7
:100A80000E94E000892B09F45CCF80E10E94E00025
:100A9000892B19F281E10E94E000892BB1F581E1F7
:100AA0000E94E000892B89F20115110509F406CF97
:100AB0000E94000003CFCE010A978A35910548F4C1
:100AC00080E00E9470028DE091E00E942B0382E0A2
:100AD00010C0CE01845691098338934048F480E0D9
:100AE0000E9470028EE091E00E942B0381E0BACF59
:100AF00080E00E947002CE010E943D030E949A0194
:100B000089E191E00E948102B4CF2196C03187E251
:100B1000D80709F09CCFC8CFE9E1F1E01382128237
:100B200084E091E09183808389E084838FEF8583E3
:100B300088E0868383E0878382E0808781E0818705
:100B400012861386148615861686178661E0CF01F5
:100B50000C948902A1E21A2EAA1BBB1BFD010DC039
:100B6000AA1FBB1FEE1FFF1FA217B307E407F5075D
:100B700020F0A21BB30BE40BF50B661F771F881F39
:100B8000991F1A9469F760957095809590959B01CF
:100B9000AC01BD01CF010895EE0FFF1F0590F49148
:100BA000E02D099481E090E0F8940C94D705F89436
:020BB000FFCF75
:100BB2000000000067028C00280327033030300059
:00000001FF
